:100000000C94DA030C94F7030C94F7030C94A40FEC
:100010000C9480320C94F7030C94F7030C94F703C0
:100020000C94F7030C94F7030C94F7030C943D30F5
:100030000C94F7030C94F7030C94F7030C94F70358
:100040000C94FD280C94F7030C94F8240C94B3241E
:100050000C94F7030C94F7030C94F7030C94F70338
:100060000C94F7030C94F70323262A262D2630261A
:1000700035263F264B26CA26CA26CA265526582686
:1000800061266A267426CA26CA26CA26CA26CA260F
:100090007E268C269A26A426A726B026B926BE261A
:1000A000084AD73B3BCE016E84BCBFFDC12F3D6CDF
:1000B00074319ABD56833DDA3D00C77F11BED9E445
:1000C000BB4C3E916BAAAABE000000803F05A84C25
:1000D000CDB2D44EB93836A9020C50B991868808F1
:1000E0003CA6AAAA2ABE000000803F3E0D0A002CB2
:1000F00052583A002C4275663A002C002C57506F2B
:10010000733A002C002C4D506F733A003C436865E5
:10011000636B003C416C61726D003C486F6D650023
:100120003C486F6C64003C52756E003C51756575BF
:1001300065003C49646C65005D0D0A005B302E393A
:10014000672E32303134303930353A000D0A003DF7
:1001500000244E005D0D0A0020530020460020546C
:1001600000204D3800204D3900204D3500204D3401
:1001700000204D3300204D3200204D3100204D3005
:1001800000204739340020473933002047393100F7
:1001900020473930002047323000204732310020DC
:1001A0004731390020473138002047313700204798
:1001B00000473830004733382E35004733382E3467
:1001C000004733382E33004733382E320047330090
:1001D0004732004731004730005B005D0D0A005B8D
:1001E000544C4F3A005D0D0A002C005B4739323AFF
:1001F000005D0D0A002C003A003330003238005BFD
:1002000047005D0D0A003A002C005B5052423A0054
:10021000290D0A00206D61782074726176656C2C5E
:10022000206D6D0020616363656C2C206D6D2F73F4
:1002300065635E3200206D617820726174652C20E8
:100240006D6D2F6D696E002C20737465702F6D6D50
:10025000007A00790078002028003D002400202842
:10026000686F6D696E672070756C6C2D6F66662C9B
:10027000206D6D290D0A002028686F6D696E67205A
:100280006465626F756E63652C206D736563290DFF
:100290000A2432373D002028686F6D696E6720732D
:1002A00065656B2C206D6D2F6D696E290D0A2432EA
:1002B000363D002028686F6D696E6720666565644D
:1002C0002C206D6D2F6D696E290D0A2432353D008D
:1002D000290D0A2432343D002028686F6D696E674D
:1002E0002064697220696E76657274206D61736B2B
:1002F0003A002028686F6D696E67206379636C65CA
:100300002C20626F6F6C290D0A2432333D002028A7
:1003100068617264206C696D6974732C20626F6F00
:100320006C290D0A2432323D002028736F66742038
:100330006C696D6974732C20626F6F6C290D0A24CF
:1003400032313D0020286175746F207374617274BE
:100350002C20626F6F6C290D0A2432303D0020285A
:100360007265706F727420696E636865732C2062A9
:100370006F6F6C290D0A2431343D002028617263AF
:1003800020746F6C6572616E63652C206D6D290D34
:100390000A2431333D0020286A756E6374696F6EDC
:1003A00020646576696174696F6E2C206D6D290D0E
:1003B0000A2431323D00290D0A2431313D00202824
:1003C000737461747573207265706F7274206D61DF
:1003D000736B3A00202870726F62652070696E201E
:1003E000696E766572742C20626F6F6C290D0A2419
:1003F00031303D0020286C696D69742070696E731E
:1004000020696E766572742C20626F6F6C290D0AFC
:1004100024363D0020287374657020656E61626C1F
:100420006520696E766572742C20626F6F6C290D81
:100430000A24353D00290D0A24343D002028646932
:100440007220706F727420696E76657274206D61AF
:10045000736B3A00290D0A24333D0020287374651C
:100460007020706F727420696E76657274206D6191
:10047000736B3A002028737465702069646C652082
:1004800064656C61792C206D736563290D0A2432D3
:100490003D002028737465702070756C73652C2086
:1004A00075736563290D0A24313D0024303D002415
:1004B00024202876696577204772626C2073657402
:1004C00074696E6773290D0A24232028766965777D
:1004D000202320706172616D6574657273290D0A45
:1004E00024472028766965772070617273657220D1
:1004F0007374617465290D0A24492028766965772B
:10050000206275696C6420696E666F290D0A244E3D
:100510002028766965772073746172747570206223
:100520006C6F636B73290D0A24783D76616C756579
:10053000202873617665204772626C20736574743D
:10054000696E67290D0A244E783D6C696E65202816
:1005500073617665207374617274757020626C6F5C
:10056000636B290D0A24432028636865636B206749
:10057000636F6465206D6F6465290D0A2458202817
:100580006B696C6C20616C61726D206C6F636B29A0
:100590000D0A2448202872756E20686F6D696E6799
:1005A000206379636C65290D0A7E20286379636C6A
:1005B00065207374617274290D0A212028666565AF
:1005C0006420686F6C64290D0A3F2028637572727D
:1005D000656E7420737461747573290D0A63747287
:1005E0006C2D7820287265736574204772626C29BF
:1005F0000D0A000D0A4772626C20302E3967205BAD
:1006000027242720666F722068656C705D0D0A00D4
:100610005D0D0A0044697361626C656400456E613A
:10062000626C65640043617574696F6E3A20556E43
:100630006C6F636B656400272448277C2724582748
:1006400020746F20756E6C6F636B005265736574F8
:1006500020746F20636F6E74696E7565005B000DAA
:100660000A0050726F6265206661696C0041626FBA
:10067000727420647572696E67206379636C6500BB
:10068000486172642F736F6674206C696D697400C1
:10069000414C41524D3A20000D0A00496E76616C82
:1006A00069642067636F64652049443A00556E644D
:1006B0006566696E6564206665656420726174654F
:1006C00000556E737570706F7274656420636F6D22
:1006D0006D616E64004D6F64616C2067726F757040
:1006E0002076696F6C6174696F6E004C696E65206D
:1006F0006F766572666C6F7700486F6D696E672004
:100700006E6F7420656E61626C656400416C61722D
:100710006D206C6F636B004E6F742069646C6500B4
:10072000454550524F4D2072656164206661696C89
:100730002E205573696E672064656661756C7473ED
:100740000056616C7565203C20332075736563002D
:1007500053657474696E672064697361626C656463
:100760000056616C7565203C203000496E76616CE6
:1007700069642073746174656D656E7400426164B0
:10078000206E756D62657220666F726D61740045D2
:100790007870656374656420636F6D6D616E64204D
:1007A0006C6574746572006572726F723A20006FC6
:1007B0006B0D0A0011241FBECFEFD8E0DEBFCDBF06
:1007C00011E0A0E0B1E0E2E4F1E702C005900D9293
:1007D000A030B107D9F716E0A0E0B1E001C01D924A
:1007E000AC3CB107E1F70E94F3110C949F380C94D4
:1007F00000003B9A43980895439808951F93182F3B
:100800008091A005823049F00E94F01D0E94971E41
:10081000123011F4439A01C043981F910895F99939
:10082000FECF92BD81BD81E08FBB80B50895F89465
:10083000F999FECF92BD81BD81E08FBB40B54627BF
:10084000842F992787FD9095262F30E082239323CC
:10085000892B39F06F3F19F060BD84E006C084E158
:1008600004C0442321F060BD84E28FBBF99A7894E0
:1008700008958F929F92AF92BF92CF92DF92EF92A4
:10088000FF920F93DF93CF9300D0CDB7DEB75C011B
:100890006B017A014A0100E01EC0002319F021E03B
:1008A00030E008C0202F332727FD30952227330F53
:1008B000221F3327F60161916F01062F020F9C0161
:1008C0002F5F3F4F3A8329830E94170408948108C1
:1008D000910889819A8181149104F9F6C7018A0DE2
:1008E0009B1D602F0E9417040F900F90CF91DF91F6
:1008F0000F91FF90EF90DF90CF90BF90AF909F90BF
:100900008F900895CF93DF93EC01FB019A0190E063
:10091000B1E019C0F999FECFF2BDE1BDBFBBA0B5F2
:10092000992319F081E090E008C0892F992787FD6D
:1009300090958827990F881F992731969A2F980F9D
:10094000A993215030402115310521F7460F571F3B
:10095000F999FECF52BD41BD81E08FBB80B520E04B
:1009600030E0981711F421E030E0C901DF91CF9118
:1009700008956091A2057091A3058091A4059091BE
:10098000A5050E94D13520917F06309180064091C7
:100990008106509182060E94363560933E05709321
:1009A0003F0580934005909341056091A6057091A5
:1009B000A7058091A8059091A9050E94D1352091A5
:1009C00083063091840640918506509186060E94E8
:1009D00036356093420570934305809344059093A8
:1009E00045056091AA057091AB058091AC05909189
:1009F000AD050E94D135209187063091880640913F
:100A0000890650918A060E94363560934605709398
:100A10004705809348059093490508952F923F928A
:100A20004F925F926F927F928F929F92AF92BF92FE
:100A3000CF92DF92EF92FF920F931F93DF93CF93AA
:100A4000CDB7DEB7A8970FB6F894DEBF0FBECDBF07
:100A50001C01E6E6F5E089E3DF011D928A95E9F7DE
:100A60003196A7E2B5E08AE00D9001928150E1F75E
:100A700019821CA277246624AA24BB241F8E1E8EF2
:100A800061E0462E512C9924939452E0852E96C213
:100A9000802F81548A3118F081E00C94F10E9F5F11
:100AA0009983C101BE016F5F7F4FAE014E5F5F4F03
:100AB0000E94AC16882319F482E00C94F10ECA80CF
:100AC000DB80EC80FD80C701B6010E9452380E9495
:100AD000A335162F70E0882777FD8095982F0E9408
:100AE000D1359B01AC01C701B6010E94553420E00D
:100AF00030E048EC52E40E9478370E94DB370E94D5
:100B0000A3359B01073421F00D3409F07DC132C1BA
:100B1000163209F49DC01732F0F4143170F411311B
:100B200008F0DEC0143009F444C0143008F490C05A
:100B30001A3011F00C94E00E32C01C3181F11D31DD
:100B400028F4163110F00C94E00EECC01E3111F0B8
:100B50000C94E00E24C0103509F481C0113588F4DE
:100B6000153339F1163340F41B3209F4E4C0113364
:100B700011F00C94E00EDFC01C3310F00C94E00E6A
:100B8000F1C01C3561F01D3528F41A3510F40C94B1
:100B9000E00EB6C01F3510F00C94E00EBAC021155F
:100BA000310539F4BCA1BB2311F00C94DE0EE1E059
:100BB000ECA31C31A9F01D3128F4143051F01A3087
:100BC00069F40AC0153371F11C3581F11E3131F41D
:100BD00018C09092660502C08092660580E0C6C08B
:100BE0002115310531F02A30310511F00C94E00E59
:100BF00004C0F3E0F093660529C024E02093660565
:100C000025C02115310531F02A30310511F00C9441
:100C1000E00E04C085E08093660518C096E09093CE
:100C2000660514C0A7E0A0936605D8CF211531054D
:100C300031F02A30310511F00C94E00E04C0B8E018
:100C4000B093660503C0E9E0E093660580E0CDC09F
:100C5000FCA1FF2311F00C94DE0E82E08CA3123075
:100C600089F0133028F4112351F01130B9F50AC07E
:100C7000163259F0103579F1133081F503C0109216
:100C800067052CC01093670529C02E313105B1F0DE
:100C90002F31310530F42431310511F00C94E00E80
:100CA00009C02832310571F02233310511F00C945E
:100CB000E00E0CC094E0909367050BC0A5E0A093F4
:100CC000670507C0B6E0B093670503C0E7E0E093AF
:100CD000670581E08AC0F8E0F093670581E046C0CF
:100CE000123139F0133149F0113129F410926B05AA
:100CF00002C090926B0582E039C080926B05FBCFF9
:100D00001A3519F410926A0502C090926A0583E0C0
:100D10002DC01D3519F49092680502C01092680527
:100D200084E024C0143119F49092690502C0109235
:100D3000690585E01BC08CA1882311F00C94DE0EA0
:100D4000113329F410926C0593E09CA309C02A305A
:100D5000310511F00C94E00E90926C05A3E0ACA369
:100D600086E043C0165310936D0587E0232BE9F10D
:100D70000C94E20E672B11F00C94E20E163018F46E
:100D80001330C0F40AC0183010F40C94E00E1A307E
:100D900008F11E3111F00C94E00E123041F01E31BA
:100DA00031F0112311F490926E0588E01EC08092FC
:100DB0006E05FBCF143039F0153041F0133041F49B
:100DC0009092700505C08092700502C01092700567
:100DD00089E00BC0183019F0193031F403C080924B
:100DE0006F0502C010926F058AE0920102C0220FC7
:100DF000331F8A95E2F7C9018A219B21892B09F0CB
:100E0000E3C7A22AB32ADAC0003509F46CC0013561
:100E10009CF40A34F1F10B3434F4063421F1093432
:100E200009F0CEC72AC00C3409F44BC00C34ECF1E5
:100E30000E3409F0C5C749C0043599F005353CF4B6
:100E4000023509F45AC0033509F0BAC760C0093544
:100E500009F473C00A3509F47CC0083509F0B0C73D
:100E600060C029E081C0C0927105D0927205E09205
:100E70007305F092740520E077C0C0927505D0929A
:100E80007605E0927705F0927805B1E06B2A21E0D3
:100E90006BC0C0927905D0927A05E0927B05F09202
:100EA0007C05E2E06E2A22E05FC0C0927D05D09210
:100EB0007E05E0927F05F0928005F4E06F2A23E042
:100EC00053C01093810524E04FC0C701B6010E94B2
:100ED0009E3560938205709383058093840590937B
:100EE000850525E041C0C0928605D0928705E09235
:100EF0008805F092890526E037C0C0928A05D09215
:100F00008B05E0928C05F0928D0527E02DC0C092F4
:100F10008E05D0928F05E0929005F092910528E021
:100F200023C0C0929305D0929405E0929505F0926B
:100F3000960521E0722A2AE017C0C0929705D09248
:100F40009805E0929905F0929A0582E0782A2BE0C4
:100F50000BC0C0929B05D0929C05E0929D05F0923B
:100F60009E0594E0792A2CE08201022E02C0000F37
:100F7000111F0A94E2F78E8D9F8D80239123892B78
:100F800011F089E12EC781E693E002C0959587951F
:100F90002A95E2F780FF0CC0C701B60120E030E0DF
:100FA00040E050E00E942F35882314F484E019C7F4
:100FB000AE8DBF8DA02BB12BBF8FAE8F9981F1016C
:100FC000E90FF11D0081002309F062CD772029F09F
:100FD000BCA1BB2311F4E2E0ECA3FE8DF5FF0FC032
:100FE0008091820590918305A0918405B09185053B
:100FF00080589649A849B04014F08BE1F2C6809120
:101000006805813039F48CA18230B1F59E8D90FD58
:1010100033C0DCC680912805882371F5AE8DA0FF12
:101020001BC080916905813039F56091710570911F
:101030007205809173059091740523E333E34BECC3
:1010400051E40E9478376093710570937205809324
:1010500073059093740510C0809135059091360505
:10106000A0913705B0913805809371059093720572
:10107000A0937305B0937405EE8DFF8DF0FD10C045
:101080008091310590913205A0913305B0913405DE
:1010900080938E0590938F05A0939005B093910552
:1010A00080916605813041F4FE8DF6FF91C68E8DEC
:1010B0009F8D8F7B9F8F8E8F80916B05882341F052
:1010C000813061F492E09BA31AA2A1E0A9A30BC016
:1010D0001BA2B1E0BAA3E2E0E9A305C0F1E0FBA3E3
:1010E00022E02AA319A280916905813051F543E9D4
:1010F000E42E45E0F42E00E010E0C72CDD24C6010C
:10110000002E02C0959587950A94E2F780FF10C0E3
:10111000D7016D917D918D919C9123E333E34BEC4D
:1011200051E40E947837F70160837183828393834F
:101130000F5F1F4F84E090E0E80EF91E03301105A9
:10114000F1F69CA1933049F480916C05813029F42B
:10115000A4E07A1611F085E244C6DE011696EAE4B0
:10116000F5E08CE001900D928150E1F7A7FE12C0EE
:1011700090916D05973008F02DC680912D05891747
:1011800049F0892FBE016A5F7F4F0E94A127882303
:1011900009F422C680916605823021F0883009F07A
:1011A000FDC09AC0772009F419C68E8D9F8D807579
:1011B0009070892B09F40CC66091860570918705A3
:1011C00080918805909189050E9452380E94A3352C
:1011D000673008F0FFC520918105243131F02230BD
:1011E00009F0EEC5BE8DB7FDEBC5662319F0615061
:1011F00068A303C0E0916D05E8A38E010E5E1F4F4A
:1012000088A1B8010E94A127882309F4E5C57801C7
:1012100033E9832E35E0932E2EE3C22E25E0D22E25
:1012200000E010E0A72CBB24C501002E02C095955C
:1012300087950A94E2F780FF3BC080918105843155
:1012400069F5D6016D917D918D919C91139758967A
:101250002D913D914D915C915B970E945534F40125
:1012600020813181428153810E945534D7016D9391
:101270007D938D939C9313970230D1F42091620556
:101280003091630540916405509165050E94553485
:10129000F70160837183828393830AC0F4018081A4
:1012A0009181A281B381F70180839183A283B3836B
:1012B0000F5F1F4F84E090E0E80EF91E880E991E24
:1012C000C80ED91E0330110509F0AECFAE8DBF8D0B
:1012D000AF7ABF8FAE8F02C1772009F47FC503E9D3
:1012E00015E09EE3C92E95E0D92E86E0882E912C3C
:1012F0008C0E9D1EEE24FF24A72CBB24C5010E2CB2
:1013000002C0959587950A94E2F780FF2CC0F601FC
:101310006081718182819381D4012D913D914D91A4
:101320005C910E945534F8012081318142815381C2
:101330000E945534D8016D937D938D939C931397A0
:10134000B2E0EB16D1F42091620530916305409133
:101350006405509165050E945534F80160837183DE
:10136000828393830AC0F601808D918DA28DB38D07
:10137000F80180839183A283B3830894E11CF11C5C
:101380000C5F1F4F84E090E0C80ED91E880E991E96
:1013900093E0E916F10409F0B1CF9FC0ACA1A330EE
:1013A00009F47CC0772009F479C01EE3C12E15E052
:1013B000D12E03E915E0B6E0AB2EB12CAC0EBD1E6C
:1013C000EE24FF24872C9924C4010E2C02C095958D
:1013D00087950A94E2F780FD0BC0F6018081918128
:1013E000A281B381F80180839183A283B38346C035
:1013F00080916605873009F441C080916A05882391
:1014000061F5D5016D917D918D919C91F601208DB5
:10141000318D428D538D0E945634D8012D913D91CE
:101420004D915C910E945634F801608371838283F0
:101430009383F2E0EF1611F5209162053091630578
:1014400040916405509165050E945634D8016D9312
:101450007D938D939C93139711C0F80160817181E6
:1014600082819381D6012D913D914D915C910E9495
:101470005634F80160837183828393830894E11C5E
:10148000F11C84E090E0C80ED91E0C5F1F4FA80E1F
:10149000B91E93E0E916F10409F096CF8091660534
:1014A000853049F0873099F08330B9F4772009F41A
:1014B0001CA286E004C0772009F41CA287E0BE01CC
:1014C0006E5E7F4F0E94A127882339F485C48091E6
:1014D0006705823010F08EE184C418A21091670570
:1014E000183049F4772009F45FC2ACA1A13009F4A7
:1014F0005BC28FE176C4BCA1B23009F055C21123A2
:10150000E9F0609171057091720580917305909179
:10151000740520E030E040E050E00E942F35882341
:1015200009F454C4143030F4123060F4113009F06E
:101530003BC204C0183008F037C213C2772009F448
:1015400032C232C2772009F449C4FBA1EF2FF0E088
:10155000F8A7EFA39AA1892F90E09EA38DA381E025
:1015600090E08C010DA002C0000F111F0A94E2F759
:101570000FA002C0880F991F0A94E2F7082B192BBD
:10158000872D90E080239123892B11F480E229C4D8
:10159000EFA1F8A5EE0FFF1FEE0FFF1FDF01A95D02
:1015A000BA4FEA59FA4F65A576A587A590A957962F
:1015B0002D913D914D915C915A970E9455345B015C
:1015C0006C01EDA1FEA1EE0FFF1FEE0FFF1FDF016B
:1015D000A95DBA4FEA59FA4F65A576A587A590A9E6
:1015E00057962D913D914D915C915A970E9455349B
:1015F0001B012C01AE8DA7FF02C10EE315E063E9CC
:10160000E62E65E0F62EF80160817181828193817A
:10161000D7012D913D914D915C910E942F358823EA
:1016200059F40C5F1F4FE4E0F0E0EE0EFF1EF5E012
:101630000A341F0741F7D4C3809169058130B1F4A2
:1016400060918A0570918B0580918C0590918D0534
:1016500023E333E34BEC51E40E94783760938A052F
:1016600070938B0580938C0590938D05E0908A058F
:10167000F0908B0500918C0510918D05C801B70184
:1016800020E030E040E850E40E947837A80197015C
:101690000E9478377B018C01C601B501A601950136
:1016A0000E9478379B01AC01C801B7010E945534F4
:1016B0007B018C01C201B101A20191010E94783726
:1016C0009B01AC01C801B7010E9455347B018C011C
:1016D00020E030E040E050E00E942F35882314F4F1
:1016E00082E27FC3C801B7010E9405387B018C01EB
:1016F000C601B501A20191010E946E179B01AC01C8
:1017000017FB109517F91095C801B7010E943635DF
:101710007B018C0180916705833021F417FB1095C4
:1017200017F9109560908A0570908B0580908C0554
:1017300090908D05C401B30120E030E040E050E01E
:101740000E942F3588237CF417FB109517F910950C
:10175000D401C301B05880938A0590938B05A09360
:101760008C05B0938D058E8D9F8D8F779F8F8E8F7B
:10177000AFA1B8A5AA0FBB1FAA0FBB1FA659BA4F8E
:10178000B8A7AFA3C201B101A80197010E947837A1
:101790009B01AC01C601B5010E94553420E030E048
:1017A00040E05FE30E947837EFA1F8A56387748774
:1017B000858796878DA19EA1880F991F880F991FF5
:1017C00086599A4F9EA38DA3C601B501A801970122
:1017D0000E9478379B01AC01C201B1010E945634CE
:1017E00020E030E040E05FE30E947837ADA1BEA189
:1017F0001B966D937D938D939C931E97D5C0862CDD
:10180000992408211921012B11F483E2EAC2EE8DFB
:10181000FF8DE17FFF8FEE8F80916905813041F56B
:1018200035E7E32E35E0F32E00E010E0C401002E92
:1018300002C0959587950A94E2F780FF10C0D70102
:101840006D917D918D919C9123E333E34BEC51E4B9
:101850000E947837F70160837183828393830F5FDF
:101860001F4F84E090E0E80EF91E03301105F1F6F9
:10187000EFA0F8A4EE0CFF1CEE0CFF1CAAE6B5E0EE
:10188000EA0EFB1EC601B501F701238534854585A7
:1018900056850E9455345B016C010DA11EA1000FFD
:1018A000111F000F111F06591A4FC201B101D801B3
:1018B0001B962D913D914D915C911E970E94553440
:1018C0009B01AC01C601B5010E946E175B016C0162
:1018D000F7016385748585859685D8011B962D91C2
:1018E0003D914D915C911E970E946E173B014C01FA
:1018F00060938A0570938B0580938C0590938D057A
:10190000C601B501A40193010E9455347B018C01ED
:10191000E89417F9C801B7012AE037ED43EA5BE321
:101920000E943D3718160CF03FC0C801B70120E0F7
:1019300030E040E05FE30E943D3718160CF450C2DF
:10194000C401B3012FE632E143E85AE30E9478373D
:101950009B01AC01C801B7010E943D37181624F560
:101960003FC2772009F43AC20EE315E083E9E82E7E
:1019700085E0F82EF8016081718182819381D70121
:101980002D913D914D915C910E942F35882361F4FA
:101990000C5F1F4FE4E0F0E0EE0EFF1EF5E00A34AE
:1019A0001F0741F71DC21CA28E8D9F8D8E7D9C7FCF
:1019B0002CA1222321F08E8D9F8D8E7D907E892BF0
:1019C00011F084E20EC28091820590918305A0916E
:1019D0008405B091850580933A0590933B05A093CB
:1019E0003C05B0933D058091680580932805809162
:1019F000710590917205A0917305B0917405809363
:101A0000350590933605A0933705B0933805E090DF
:101A10008E05F0908F0500919005109191056091D1
:101A20003105709132058091330590913405A801FC
:101A300097010E942F35882381F0E0923105F092C2
:101A400032050093330510933405809130058823C7
:101A500021F0B801A7010E94682880919205809327
:101A600039059091700580913005891769F0909340
:101A700030054091310550913205609133057091E8
:101A80003405892F0E94682890916F0580912F0559
:101A9000891729F090932F05892F0E94FE038091CA
:101AA0006605813051F460918605709187058091BB
:101AB0008805909189050E94811280916B05809321
:101AC0002B0580916905809329058CA18330D9F479
:101AD00080916C0580932C05813049F480919B05A1
:101AE00090919C05A0919D05B0919E0504C080E059
:101AF00090E0A0E0B0E08093620590936305A0932E
:101B00006405B093650590916D0580912D05891749
:101B100059F090932D05AAE4B5E0FE0136968CE0CD
:101B200001900D928150E1F780916A0580932A051A
:101B300080916605853059F1863048F4833039F15B
:101B4000843008F044C0823009F05AC00AC088309E
:101B500009F445C0893009F44CC0863009F050C002
:101B600038C08E010E5E1F4F88A1B8010E949627D3
:101B700080912D0598A1891709F042C0AAE4B5E02B
:101B8000F8018CE001900D928150E1F739C0ACA1D1
:101B9000AA2349F083E995E040E050E060E87FEB5C
:101BA00020E00E94DC128E010E5E1F4FC80140E053
:101BB00050E060E87FEB20E00E94DC12AEE3B5E08D
:101BC000F8018CE001900D928150E1F719C086E098
:101BD00001C087E06EE375E00E94962711C0A6E57C
:101BE000B5E0E3E9F5E08CE001900D928150E1F77A
:101BF00007C08CE0E6E5F5E0DF011D928A95E9F784
:101C00008091670580932705883009F4C2C0BCA184
:101C1000B23009F0BEC0833009F44AC0843028F4E1
:101C20008130C1F0823028F50DC0853009F47AC0CA
:101C3000853008F469C0863009F482C0873009F025
:101C40009FC08DC083E995E040E050E060E87FEB05
:101C500020E00CC040913505509136056091370564
:101C60007091380583E995E0209128050E94DC12E7
:101C700087C000D00F92EDB7FEB7319600918A056C
:101C800010918B0520918C0530918D05C090350504
:101C9000D0903605E0903705F09038058AA1ADB7B1
:101CA000BEB711968C9399A1918381E082831DC068
:101CB00000D00F92EDB7FEB7319600918A051091D2
:101CC0008B0520918C0530918D05C0903505D09005
:101CD0003605E0903705F09038058AA1ADB7BEB75C
:101CE00011968C9399A1918312828EE395E063E91A
:101CF00075E045E755E0A09028058BA00E94C3132E
:101D00000F900F900F903CC04091350550913605D3
:101D1000609137057091380583E995E02091280599
:101D200000E01BC0409135055091360560913705A4
:101D30007091380583E995E02091280500E01CC0EA
:101D40004091350550913605609137057091380501
:101D500083E995E02091280501E0EE240FC0409131
:101D6000350550913605609137057091380583E946
:101D700095E02091280501E0EE24E3940E941413DD
:101D8000AEE3B5E0E3E9F5E08CE001900D9281501F
:101D9000E1F780916E0580932E05882311F10E9452
:101DA000971E1092AE0580912E05823019F40E9484
:101DB000331202C010922E0580E013C088E111C0DA
:101DC00084E10FC087E10DC085E10BC086E109C049
:101DD0008CE107C08DE105C087E003C08AE101C046
:101DE00081E2A8960FB6F894DEBF0FBECDBFCF91AB
:101DF000DF911F910F91FF90EF90DF90CF90BF90F8
:101E0000AF909F908F907F906F905F904F903F909A
:101E10002F900895E7E2F5E08FE3DF011D928A95A8
:101E2000E9F780912D05BF016D5D7F4F0E94A127CD
:101E3000882319F487E00E94A71F089584B1897E42
:101E400084B98091BC06982F86FF03C085B1897E36
:101E500002C085B1866185B993FF09C080916B008E
:101E6000866180936B0080916800816008C08091DA
:101E70006B00897E80936B00809168008E7F8093D9
:101E800068000895EBE6F0E08081897E8083E8E6D3
:101E9000F0E080818E7F80830895CF92DF92EF9271
:101EA000FF920F931F93CF93DF936C01C0E0D0E0BC
:101EB000F601EC0FFD1FE080F18002811381C80163
:101EC000B70120E030E040E050E00E943D371816B6
:101ED0006CF0FE01E158F94FC801B70124A135A10A
:101EE00046A157A10E942F35882304F58091A005B3
:101EF000803179F49FB7F8948091A1058860809330
:101F0000A1059FBF0E94FD1D80919F058823D1F3ED
:101F100012C00E9433129FB7F8948091A105806689
:101F20008093A1059FBF0E94FD1D05C02496CC3063
:101F3000D10509F0BDCFDF91CF911F910F91FF9097
:101F4000EF90DF90CF9008951F920F920FB60F92EF
:101F500011242F933F934F935F936F937F938F93AE
:101F60009F93AF93BF93EF93FF938091A005813030
:101F700071F08091A10585FD0AC00E9433129FB7C0
:101F8000F8948091A10580668093A1059FBFFF9181
:101F9000EF91BF91AF919F918F917F916F915F91E1
:101FA0004F913F912F910F900FBE0F901F9018955A
:101FB0002F923F924F925F926F927F928F929F9259
:101FC000AF92BF92CF92DF92EF92FF920F931F9347
:101FD000DF93CF93CDB7DEB7A3970FB6F894DEBFEC
:101FE0000FBECDBF8F8F80919F05882309F0E2C17E
:101FF0008091C2069091C306A091C406B091C50617
:102000008F8B988FA98FBA8F43EAA42E46E0B42E07
:102010006624772488249924CC24DD241E01089486
:10202000211C311C34E0432E512C4C0E5D1E8C2D96
:102030000E946525F101EC0DFD1D80838C2D0E9411
:102040005125F201EC0DFD1D8083D501ED90FD9031
:102050000D911C91B301C401A80197010E943D3765
:10206000181624F0C301D4017C018D010894C11C11
:10207000D11CE4E0F0E0AE0EBF1EF3E0CF16D104B9
:1020800029F0D801C70137014D01D1CFC801B701EF
:1020900020E030E040EC5FEB0E9478375B016C01A0
:1020A0000E94421C01E025E02D8B27E0422E512C9E
:1020B0004C0E5D1E9F8D892F90E099A388A335015A
:1020C000460197FA909497F890948091BC0686FD0B
:1020D00002C00E8B03C0A1E0A027AE8B8091BD068D
:1020E000E82EFF241201920160E010E040E050E091
:1020F000742F88A199A1042E02C0959587950A9402
:10210000E2F7FC01E170F070FBA3EAA380FF10C0CE
:102110006F5F002339F4D9016D927D928D929C926C
:1021200013970FC0F901A082B182C282D38209C085
:1021300080E090E0A0E0B0E0F90180839183A28389
:10214000B383C70102C0959587957A95E2F780FF22
:102150000AC0F90180819181A281B381B058808346
:102160009183A283B3838AA19BA1892B41F0E4E0F0
:10217000F0E0EC0FFD1FE40FF51F8081182B4F5F7F
:102180005F4F2C5F3F4F4330510509F0B1CF70E0F6
:1021900080E090E00E94CF350E9405389B01AC01A1
:1021A0001093AF056F89788D898D9A8D0E9478374D
:1021B000AB01BC01C20120E00E944C190E945729CA
:1021C0000E94D52843B19E89992311F0A6E14A27A0
:1021D00020E030E0E4E0F0E0EC0FFD1FE20FF31F41
:1021E0009081812F892359F0E1E0F0E0EC0FFD1F91
:1021F000E20FF31F8081842311F0909519232F5F44
:102200003F4F2330310531F71093AF050E94572916
:102210008091A10584FF03C00E94FD1DCBC0812FCA
:102220008C7181F60E940D300E94421C8091C6067E
:102230009091C7060E9464178091BE069091BF06D8
:10224000A091C006B091C1068F8B988FA98FBA8FCD
:102250009D89992329F0A1E00A2791509D8B35CFC4
:102260008091BD06E82FF0E0FC8BEB8B4090C80618
:102270005090C9066090CA067090CB06D301C20187
:10228000B0588B8F9C8FAD8FBE8F92EAC92E95E090
:10229000D92E8FE7A82E86E0B82E8824992488A10D
:1022A00099A1082C02C0959587950A94E2F780FFC2
:1022B0003DC08B899C89082C02C0959587950A940E
:1022C000E2F780FF23C0D5019496ED90FD900D912B
:1022D0001C919797C301B201A80197010E9456343F
:1022E000F1016083718382839383C801B701D501B3
:1022F0002D913D914D915C910E9478370E94483715
:10230000F601608371838283938323C08B8D9C8DC0
:10231000AD8DBE8DF10180839183A283B383D601FD
:102320001D921D921D921C92139713C0F60160819D
:102330007181828193810E94D135D5012D913D918A
:102340004D915C910E943635F101608371838283E7
:1023500093830894811C911C24E030E0220E331EEC
:10236000C20ED31EA20EB31E33E08316910409F0F1
:1023700096CF0E94C6174091C2065091C306609145
:10238000C4067091C506CE01079620E00E944C1944
:1023900088E08093A0059FB7F8948091A1058260A2
:1023A0008093A1059FBF0E94FD1D0E94971E84E09F
:1023B0008093A005A3960FB6F894DEBF0FBECDBFE5
:1023C000CF91DF911F910F91FF90EF90DF90CF9011
:1023D000BF90AF909F908F907F906F905F904F9045
:1023E0003F902F9008951F930E9480240E94CC2735
:1023F0000E9413290E946F328FE1EFE9F5E0DF01BF
:102400001D928A95E9F781E080939F0578948091E9
:10241000BC0684FF03C081E08093A00511E00E9408
:10242000F3240E940A0F0E9457280E94F9030E9479
:102430001E0F0E94B31D0E94421C0E940D300E947C
:10244000C6170E94B90410929F051092A1058091B1
:10245000BC0681FF03C01093AE0502C01092AE050A
:102460000E94BA1EDCCF8091A10584FD1AC08FB7EF
:10247000F8949091A10590619093A1058FBF0E945F
:1024800061280E94FC038091A005847351F09FB7DE
:10249000F8948091A10580628093A1059FBF0E945E
:1024A000E12F089593B196718091BC0686FD02C01C
:1024B00086E19827992359F00E9433129FB7F89428
:1024C0008091A10580668093A1059FBF089584E057
:1024D0008093A0050E94420F84E00E94D80F83E001
:1024E0000E94D80F0E94FD1D80919F05882341F412
:1024F0000E94B9041092A0050E94E12F0E941E0FB5
:102500000895EF92FF920F931F93CF93DF937B0178
:102510008C018091A005823009F447C0C801B70141
:1025200020E030E040EA51E40E9478370E940C3607
:102530000E94A335EB010E94971EC801B70120E05D
:1025400030E04AE754E40E9478377B018C0182E353
:1025500090E0C89FB001C99F700DD89F700D1124E5
:1025600080E090E00E94CF359B01AC01C801B7012B
:102570000E9455340E940C360E94A335DC01CB0129
:102580000E94641700E911E00EC00E94FD1D8091B9
:102590009F05882351F484EF91E0F8013197F1F71A
:1025A0000197D9F72197209781F7DF91CF911F915C
:1025B0000F91FF90EF900895DF92EF92FF920F93AB
:1025C0001F93CF93DF93EC017A018B01D22E809180
:1025D000BC0685FF03C0CE010E944D0F8091A0056F
:1025E0008230D1F00E94FD1D80919F058823A1F4C7
:1025F0000E94BC17882319F00E94F01DF3CFCE0172
:10260000B801A7012D2D0E944C198091A0058823A7
:1026100019F488E08093A005DF91CF911F910F916D
:10262000FF90EF90DF9008957F928F929F92AF92EC
:10263000BF92CF92DF92EF92FF920F931F93CF93AF
:10264000DF934C015A016B01F22E8091A00582307C
:1026500009F48BC00E94971E7090AE051092BD05C4
:10266000802F0E94BC1D0E94CF1D882351F09FB770
:10267000F8948091A10580648093A1059FBF0E947A
:10268000FD1D80919F05882309F06FC0C401B6012C
:10269000A5012F2D0E94DC1281E08093B0059FB729
:1026A000F8948091A10582608093A1059FBF0E944C
:1026B000FD1D80919F05882309F057C08091A005DA
:1026C000882311F0883099F78091B0058130A9F402
:1026D000EE2051F0E1EBF5E0DF011F978CE00D906B
:1026E00001928150E1F70CC09FB7F8948091A10549
:1026F00080648093A1059FBF03C081E08093BD05E6
:102700001092B0050E94FD1D80919F05882369F5F8
:102710000E940D300E94421C0E94C61782EAE82ED9
:1027200085E0F82EC0E0D0E084010C0F1D1FF701FA
:1027300061917191819191917F010E94D135FE014A
:10274000E158F94F20813181428153810E94363511
:10275000F80160837183828393832496CC30D10502
:1027600019F77092AE050E946A1FDF91CF911F91F9
:102770000F91FF90EF90DF90CF90BF90AF909F9020
:102780008F907F9008952F923F924F925F926F9219
:102790007F928F929F92AF92BF92CF92DF92EF92F1
:1027A000FF920F931F93DF93CF93CDB7DEB7EF97D1
:1027B0000FB6F894DEBF0FBECDBF9CAB8BAB7EAB2C
:1027C0006DAB3A010FAB18AF29AF3AAFCBAEDCAE71
:1027D000EDAEFEAEAFAE9924880C991C880C991C06
:1027E000880D991D9AAB89AB9A01280D391D38AB1C
:1027F0002FA7D901AD90BD90CD90DC90C601B50159
:10280000E9A9FAA920813181428153810E9456347D
:102810006DA37EA38FA398A765966FAD6597462E8F
:102820005524440C551C440C551C2BA93CA9240DC3
:10283000351D3EA72DA7C301840D951D9CA78BA711
:10284000DC01ED90FD900D911C91C801B701F901DB
:1028500020813181428153810E94563469A37AA339
:102860008BA39CA3D601C501B0588D8F9E8FAF8FCF
:10287000B8A3D801C701B058898F9A8FAB8FBC8F8E
:10288000ADA9BEA98A0E9B1EF4016081718182816F
:1028900093812DA13EA14FA158A50E9455343B0123
:1028A0004C012DA93EA9420E531ED2016D917D917E
:1028B0008D919C9129A13AA14BA15CA10E94553414
:1028C0005B016C016D8D7E8D8F8D98A1A6019501A8
:1028D0000E9478377B018C01698D7A8D8B8D9C8D60
:1028E000A40193010E9478379B01AC01C801B70194
:1028F0000E9455341B012C016D8D7E8D8F8D98A10A
:10290000A40193010E9478377B018C01698D7A8D37
:102910008B8D9C8DA60195010E9478379B01AC019F
:10292000C801B7010E9456349B01AC01C201B1013C
:102930000E94C9345B016C0167968FAD679788234D
:1029400099F0C601B50120E030E040E050E00E947F
:102950003D378823ECF0C601B5012BED3FE049EC93
:1029600050E40E94553412C0C601B50120E030E0A9
:1029700040E050E00E942F35181654F0C601B50112
:102980002BED3FE049EC50E40E9456345B016C01B2
:10299000E090B806F090B9060091BA061091BB0617
:1029A0006FA978AD89AD9AAD9B01AC010E945634F8
:1029B000A80197010E9455349B01AC01C801B701E1
:1029C0000E9478370E9405387B018C01C601B50151
:1029D00020E030E040E05FE30E9478372FA938AD77
:1029E00049AD5AAD0E9478379F77A80197010E94A0
:1029F00036350E940C360E94A335788F6F8B611597
:102A0000710509F487C1BFADBB2381F080E090E080
:102A10000E94CF359B01AC016BAD7CAD8DAD9EAD01
:102A20000E9478376BAF7CAF8DAF9EAF2F89388D0A
:102A3000B90180E090E00E94CF357B018C01C60196
:102A4000B501A80197010E9436356B8B7C8B8D8B6D
:102A50009E8B6696EFAD6697F0E0EE0FFF1FEE0FD0
:102A6000FF1F8BA99CA98E0F9F1F9AA789A7ADA9AD
:102A7000BEA9EA0FFB1F6081718182819381E9A564
:102A8000FAA520813181428153810E945534A801E9
:102A900097010E9436356F87788B898B9A8B6B896B
:102AA0007C898D899E899B01AC010E9478379B01AE
:102AB000AC0160E070E080E090E40E9455345B017E
:102AC0006C016B897C898D899E892BEA3AEA4AE2FE
:102AD0005EE30E9478377B018C01C601B50120E0DE
:102AE00030E040E850E40E9456349B01AC01C8013C
:102AF000B7010E9478376B877C878D879E87C601D8
:102B0000B50120E030E040E05FE30E947837698360
:102B10007A838B839C8321E030E03E832D8399244C
:102B2000F1C03BE0391508F446C06D8D7E8D8F8D68
:102B300098A12B853C854D855E850E9478377B0169
:102B40008C01698D7A8D8B8D9C8D29813A814B8189
:102B50005C810E9478379B01AC01C801B7010E94DB
:102B600056347B018C016D8D7E8D8F8D98A12981CE
:102B70003A814B815C810E9478375B016C01698DE1
:102B80007A8D8B8D9C8D2B853C854D855E850E9435
:102B900078379B01AC01C601B5010E9455346D8F99
:102BA0007E8F8F8F98A39394C701D801898F9A8FB6
:102BB000AB8FBC8F61C0AD81BE81BD0180E090E074
:102BC0000E94CF352B893C894D895E890E947837D8
:102BD0007B018C01C8010E9433356F837887898718
:102BE0009A87B701C8010E94FB373B014C01EFA552
:102BF000F8A9E080F1800281138117FB109517F985
:102C00001095ABA5BCA52D903D904D905C90C80152
:102C1000B7012F81388549855A850E9478375B0135
:102C20006C01C201B101A40193010E9478379B019C
:102C3000AC01C601B5010E9456346D8F7E8F8F8F17
:102C400098A3C801B701A40193010E9478377B01C2
:102C50008C01C201B1012F81388549855A850E94B6
:102C600078379B01AC01C801B7010E945534698FC8
:102C70007A8F8B8F9C8F99246DA17EA18FA198A5AF
:102C80002D8D3E8D4F8D58A10E945634E9A9FAA989
:102C9000608371838283938369A17AA18BA19CA1B4
:102CA000298D3A8D4B8D5C8D0E945634ADA5BEA505
:102CB0006D937D938D939C931397E9A5FAA56081FD
:102CC0007181828193812F85388949895A890E942F
:102CD0005634A9A5BAA56D937D938D939C931397B4
:102CE0008BA99CA94BAD5CAD6DAD7EAD2FAD0E94A7
:102CF000DC1280919F058823B1F4ED81FE8131962D
:102D0000FE83ED832D813E818F89988D28173907A9
:102D100008F407CF8DA99EA94BAD5CAD6DAD7EAD1E
:102D20002FAD0E94DC12EF960FB6F894DEBF0FBEF7
:102D3000CDBFCF91DF911F910F91FF90EF90DF906A
:102D4000CF90BF90AF909F908F907F906F905F904B
:102D50004F903F902F9008956F927F928F929F9205
:102D6000AF92BF92CF92DF92EF92FF920F931F9399
:102D7000CF93DF934C013B015A01FB018081F401A9
:102D8000E80FF11DEF0189918D3229F4818121969F
:102D9000CC24C39405C08B3211F481812196CC24BC
:102DA00020E030E040E050E0DD24E0E070E0682F1B
:102DB00060536A30F8F4EF5FE930C0F47111DA94CF
:102DC000DA01C901F2E0880F991FAA1FBB1FFA950B
:102DD000D1F7280F391F4A1F5B1F220F331F441FD3
:102DE000551F260F311D411D511D09C0772339F490
:102DF000D39405C06E3F29F4772319F471E08991CB
:102E0000D6CFEE2311F480E050C0CA01B9010E9470
:102E1000CF357B018C0120E030E040E050E00E94A3
:102E20002F35882369F42BC0C801B7012AE037ED9C
:102E300043E25CE30E9478377B018C01F2E0DF0E15
:102E40008FEFD8168CF3D81659F4C801B7012DECC2
:102E50003CEC4CEC5DE30E9478377B018C010FC0A9
:102E6000DD2069F0C801B70120E030E040E251E424
:102E70000E9478377B018C01DA941D149CF3CC20DE
:102E800049F0D801C701B058F50180839183A2832E
:102E9000B38305C0F501E082F18202831383882D9C
:102EA00080958C0FF301808381E0DF91CF911F919A
:102EB0000F91FF90EF90DF90CF90BF90AF909F90D9
:102EC0008F907F906F90089520EA3FE004C0F90151
:102ED0003197F1F701970097D1F70895AF92BF921C
:102EE000CF92DF92EF92FF920F931F937B018C01A1
:102EF00059016A01A80197010E9478377B018C0172
:102F0000C601B501A60195010E9478379B01AC016D
:102F1000C801B7010E9456340E9405381F910F91D5
:102F2000FF90EF90DF90CF90BF90AF9008952091E9
:102F3000E2038091E303821769F0922F9F5F923141
:102F400009F490E08091E503281711F49093E503CC
:102F50009093E20308959091E2038091E30389172F
:102F600019F420E030E006C089E2989F9001112416
:102F700020503F4FC901089520E09091E2038091D5
:102F8000E403981709F421E0822F08958091A205A7
:102F90009091A305A091A405B091A5058093E603A7
:102FA0009093E703A093E803B093E9038091A6050B
:102FB0009091A705A091A805B091A9058093EA0377
:102FC0009093EB03A093EC03B093ED038091AA05DB
:102FD0009091AB05A091AC05B091AD058093EE0347
:102FE0009093EF03A093F003B093F10308958091C1
:102FF000E3039091E203891710F0891B08958E5E18
:10300000891B08954F925F926F927F928F929F9249
:10301000AF92BF92CF92DF92EF92FF920F931F93E6
:10302000CF93DF938091E303882309F482E1782E24
:103030007A946090E503761409F4F2C089E2789EF0
:103040004001112480E091E0880E991EF401A588CA
:10305000B688C788D08C21A132A143A154A1CA014E
:10306000B9010E945634F40125A136A147A150A50B
:103070000E9478377B018C01B501C601A801970138
:103080000E942F3587FD04C0D801C70157016D018B
:10309000C501D601F401818B928BA38BB48B772071
:1030A00011F432E1732E7A94761409F04EC08091B7
:1030B000E203681609F050C00E9435294DC0769C85
:1030C000E0011124C050DF4F772011F422E1722E6D
:1030D0007A948091E203781611F40E943529AD8824
:1030E000BE88CF88D88C69897A898B899C89A6010A
:1030F00095010E942F35882331F129A13AA14BA1D6
:103100005CA1CA01B9010E9456342DA13EA14FA174
:1031100058A50E947837F40121893289438954895E
:103120000E9456347B018C01A60195010E942F3527
:1031300088232CF4E98AFA8A0B8B1C8B04C0A98A99
:10314000BA8ACB8ADC8A4E0102C099E2692E80914C
:10315000E503781609F0B3CFA090E503BA2CB39439
:10316000F2E1BF1609F4BB2489E2A89E8001112474
:1031700000501F4F5090E30389E2482E4CC0B49C8E
:10318000E0011124C050DF4FF801C188D288E388E4
:10319000F48869887A888B889C88C701B601A40165
:1031A00093010E942F3588231CF5F80121A132A13B
:1031B00043A154A1CA01B9010E945634F80125A1C6
:1031C00036A147A150A50E9478379B01AC01C701E9
:1031D000B6010E9456347B018C01A40193010E9428
:1031E0002F3588232CF4E98AFA8A0B8B1C8BAB2CA5
:1031F00069897A898B899C892D893E894F89588D67
:103200000E942F35882309F4AB2CB394F2E1BF164A
:1032100009F4BB248E01B51409F0B1CFA092E503E7
:10322000DF91CF911F910F91FF90EF90DF90CF90A2
:10323000BF90AF909F908F907F906F905F904F90D6
:1032400008950E9435298091E2038093E5030E944E
:10325000021808952091E2032F5F223109F420E043
:103260008091E303281729F460E070E080E090E0AB
:1032700012C030E089E290E0289FF001299FF00D14
:10328000389FF00D1124E050FF4F618972898389C6
:1032900094890E94053808952F923F924F925F9231
:1032A0006F927F928F929F92AF92BF92CF92DF9256
:1032B000EF92FF920F931F93DF93CF93CDB7DEB7BB
:1032C000E0970FB6F894DEBF0FBECDBF98A78FA3CF
:1032D00049A75AA76BA77CA7222E9091E30389E206
:1032E000989F4001112420E031E0820E931ED4010A
:1032F0001D961D921D921D921C92509780E090E0A9
:10330000A0E0B0E0F40185A396A3A7A3B0A7108224
:1033100089E996E7A6E9BEE781A392A3A3A3B4A394
:103320002401332466247724F301E158F94FA08067
:10333000B180C280D380EFA1F8A5E60DF71DC601CC
:10334000B50120813181428153810E9478370E94EA
:1033500048379B01AC01E1E0F0E0EC0FFD1FE60D0A
:10336000F71D2083318342835383F301EA51FC4FDD
:1033700080819181A281B381281B390B4A0B5B0BA1
:10338000DA01C90157FF07C088279927DC01821B92
:10339000930BA40BB50BF20181839283A383B483B7
:1033A000F401E584F684078510898E159F05A00732
:1033B000B10710F4D801C701F40185879687A78764
:1033C000B08BCA01B9010E94D135A60195010E94B6
:1033D00036355B016C01EDE0F0E0EC0FFD1FE60D12
:1033E000F71D608371838283938320E030E040E0A7
:1033F00050E00E942F35882344F4D4011C91832D82
:103400000E945B25182BF4011083D4019596ED9052
:10341000FD900D911C919897C601B501A6019501EB
:103420000E9478379B01AC01C801B7010E94563455
:103430007B018C01CB01D801F40185A396A3A7A33E
:10344000B0A7339424E030E0620E731E420E531E88
:1034500033E0331609F068CFB701C8010E94053880
:103460007B018C01D40195966D937D938D939C93F4
:1034700098971D968D919D910D90BC91A02D0097D0
:10348000A105B10509F4E5C169A57AA58BA59CA59F
:1034900020E030E040E050E00E942F3588232CF4FB
:1034A00089E996E7A6E9BEE71EC0222061F0C801BF
:1034B000B70129A53AA54BA55CA50E94363569A799
:1034C0007AA78BA79CA769A57AA58BA59CA520E0C8
:1034D00030E040E85FE30E942F35882344F480E029
:1034E00090E0A0E8BFE389A79AA7ABA7BCA760E0DC
:1034F00070E080E89FE3A80197010E9436356BA336
:103500007CA38DA39EA3DE011D96BE8FAD8FE2EF3F
:10351000F3E0FC8FEB8F2BE836E03A8F298F80E0C9
:1035200090E0A0E0B0E08F8F98A3A9A3BAA3DE013A
:103530005996B8ABAFA7ED8DFE8DE080F18002818A
:103540001381C801B70120E030E040E050E00E9464
:103550002F35882309F47CC0C801B7012BA13CA1F9
:103560004DA15EA10E9478372B013C01AD8DBE8D2F
:103570006D937D938D939C93139760E070E080E84A
:103580009FE3A30192010E9436355B016C01E89430
:10359000D7F8C601B501E98DFA8D208131814281CC
:1035A00053810E9478377B018C0169A57AA58BA590
:1035B0009CA5A80197010E942F3587FD04C0E9A6AC
:1035C000FAA60BA71CA7D4019196BC91BDA7F40144
:1035D000F2A1FEA7D40193962C90939794963C90D9
:1035E000C601B501E98DFA8D248535854685578557
:1035F0000E9478377B018C016DA57EA5C101A801D1
:1036000097010E942F3587FD05C0D801C701EDA69F
:103610009EA71D018DA59EA5D101F40181A392A3B2
:10362000A3A3B4A3C301B201AB8DBC8D2D913D9179
:103630004D915C910E9478379B01AC016F8D78A110
:1036400089A19AA10E9455346F8F78A389A39AA368
:10365000ED8DFE8D3496FE8FED8F2B8D3C8D2C5F86
:103660003F4F3C8F2B8F898D9A8D04969A8F898F2F
:10367000AFA5B8A9EA17FB0709F05DCF9091E30366
:103680008091E203981771F480E090E0A0E0B0E050
:10369000F401818B928BA38BB48B818F928FA38F3C
:1036A000B48F52C060E070E080E89FE32F8D38A1B6
:1036B00049A15AA10E94553420E030E040E05FE388
:1036C0000E9478370E9405385B016C01D401919605
:1036D0006D917D918D919C9194972091B40630913C
:1036E000B5064091B6065091B7060E947837A601FC
:1036F00095010E9478377B018C0160E070E080E8E2
:103700009FE3A60195010E9455349B01AC01C801BD
:10371000B7010E9436357B018C0120E030E040E0AB
:1037200050E00E942F35882354F40F2EF0E0EF2E46
:10373000F0E0FF2EF0E00F2FF0E01F2FF02DF4014E
:10374000E18EF28E038F148F69A57AA58BA59CA5B7
:103750009B01AC010E9478377B018C01D4015D96FE
:103760006D937D938D939C93909759965C90599708
:103770005A964C905A975B963C905B975C962C902F
:10378000D090FE03C090FF03B0900004A09001040D
:103790002D2D3C2D4B2D5A2D0E942F3587FD04C019
:1037A0006D2C7C2CF50105C0D801C7013701FA2F1B
:1037B000EB2F652D742D832D922D93014F2F5E2FAE
:1037C0000E942F3588232CF4852D942DA32DB22D06
:1037D0000EC0C801B7012D2D3C2D4B2D5A2D0E9436
:1037E0002F3587FD06C08D2D9C2DAB2DBA2D7C016C
:1037F0008D01F401E58AF68A078B108FA2EFB3E002
:10380000FE013D968CE001900D928150E1F7F401AC
:10381000858D968DA78DB0A18093FE039093FF03B5
:10382000A0930004B0930104A6EEB3E0FE0131962C
:103830008CE001900D928150E1F78091E403809338
:10384000E3038F5F823109F480E08093E4030E94F8
:103850000218E0960FB6F894DEBF0FBECDBFCF9131
:10386000DF911F910F91FF90EF90DF90CF90BF906D
:10387000AF909F908F907F906F905F904F903F9010
:103880002F9008958CE1E6EEF3E0DF011D928A951A
:10389000E9F71092E2031092E30381E08093E403DE
:1038A0001092E50308958F929F92AF92BF92CF92AC
:1038B000DF92EF92FF920F931F93DF93CF93CDB7D9
:1038C000DEB72A970FB6F894DEBF0FBECDBF7B01DF
:1038D0008C01A42E20E030E040E050E00E942F3523
:1038E00088233CF48DE20E94962417FB109517F96B
:1038F0001095DA2C0CC0C801B70120E030E048EC8C
:1039000052E40E9478377B018C018EEFD80EE1E003
:10391000ED1588F3A0FE0AC0C801B70120E030E031
:1039200040E251E40E9478377B018C01C801B70165
:1039300020E030E040E05FE30E9456340E949E3574
:103940006B017C019E012F5F3F4FF901EA0DF11DD4
:103950008EE28083BB2449011EC0BA1409F4B394DB
:1039600084010B0D111DC701B6012AE030E040E0D3
:1039700050E00E947D38605DF8016083B394C70118
:10398000B6012AE030E040E050E00E947D38C901F5
:10399000DA016C017D01C114D104E104F104E9F6FE
:1039A00006C0FC01EB0DF11D2083B39403C0CE01D2
:1039B000019620E3BA14A8F3BA1489F48B2D8F5F13
:1039C000FE01E80FF11D90E39183B82EB39407C078
:1039D000FE01EB0DF11D80810E949624BA94BB205C
:1039E000B9F72A960FB6F894DEBF0FBECDBFCF91C0
:1039F000DF911F910F91FF90EF90DF90CF90BF90DC
:103A0000AF909F908F90089543E00E94531C0895BB
:103A10009B01AC018091BC0680FF0AC0CA01B901BC
:103A20002BE832E441E25DE30E94783741E003C0D5
:103A3000CA01B90140E00E94531C08959B01AC01EA
:103A40008091BC0680FF0AC0CA01B9012BE832E4AC
:103A500041E25DE30E94783744E003C0CA01B90146
:103A600043E00E94531C08951F93DF93CF9300D02F
:103A70000F92CDB7DEB7282F882321F480E30E9470
:103A800096241EC010E0AE014F5F5F4FFA01E10FB8
:103A9000F11D822F6AE00E947138905D90831F5F54
:103AA000822F0E947138282F882381F707C0FE01DA
:103AB000E10FF11D80810E94962411501123B9F766
:103AC0000F900F900F90CF91DF911F9108950F935A
:103AD0001F93DF93CF93CDB7DEB728970FB6F89437
:103AE000DEBF0FBECDBF982FFE0131969E01275F2E
:103AF0003F4F892F817081939695E217F307C9F79D
:103B00008E01085F1F4FF8018081805D0E9496241E
:103B1000015010400C171D07B1F728960FB6F89406
:103B2000DEBF0FBECDBFCF91DF911F910F910895E2
:103B3000CF93DF93EC0102C00E949624FE012196F0
:103B400084918823C9F7DF91CF910895CF93DF93B4
:103B5000EC0103C021960E94962488818823D1F726
:103B6000DF91CF9108953D988091BC0687FF02C0F8
:103B700045980895459A0895982F1092BE05809112
:103B8000BC0687FD03C080E28093BE05992331F017
:103B90008091BE0590E289278093BE05089586B185
:103BA00080729091BE05892708958091B00581307B
:103BB000B1F486B180729091BE05891781F01092A0
:103BC000B005E1EBF5E0DF011F978CE00D9001926D
:103BD0008150E1F78091A10588608093A105089547
:103BE0008091AE05882341F09FB7F8948091A1059C
:103BF00082608093A1059FBF0895CF93DF9380914A
:103C0000A105882309F48AC0C82FD0E0CE018076B0
:103C10009070892B39F181E08093A005C6FF17C011
:103C2000C5FF02C08FEF01C08DEF0E94542481E0D8
:103C30000E94401F9FB7F8948091A1058F7E8093CA
:103C4000A1059FBF8091A10584FFFCCF03C08EEF2B
:103C50000E9454249FB7F8948091A1058F79809396
:103C6000A1059FBFC4FF04C081E080939F055CC095
:103C7000C0FF0AC00E940E209FB7F8948091A10552
:103C80008E7F8093A1059FBFC3FF15C08091A005C3
:103C9000803149F480E28093A0050E9435290E947A
:103CA00057291092AE059FB7F8948091A105877FA0
:103CB0008093A1059FBFC1FF1DC08091A0058830E2
:103CC00089F480E18093A0050E9457290E94D5289D
:103CD0008091BC0681FF04C081E08093AE0502C0E4
:103CE0001092AE059FB7F8948091A1058D7F8093C7
:103CF000A1059FBFC2FF12C00E94AB17892B21F004
:103D000088E08093A00502C01092A0059FB7F894A8
:103D10008091A1058B7F8093A1059FBF8091A00515
:103D2000847311F00E945729DF91CF9108958091FB
:103D3000AE05882341F09FB7F8948091A105826079
:103D40008093A1059FBF8091A005803151F481E04F
:103D50008093AE0506C00E94FD1D80919F058823BB
:103D600041F40E94AB17892BB1F78091A0058031F7
:103D700091F308950F931F930E943B1F8091A0051C
:103D8000813021F482E00E94401F1CC01092A005E7
:103D900082E094E00E94BC3215C09A3011F09D3050
:103DA00029F5E12FF0E0EE5FFB4F10820E94FD1D30
:103DB00080919F05882331F480910204882321F4A7
:103DC0000E94A71F00E025C0843229F482E094E01D
:103DD0000E94E832F5CF8091A005813011F489E08E
:103DE000EFCF82E094E00E940E05EACF002321F09D
:103DF000993209F500E01FC09132E8F09F32D9F006
:103E0000983211F401E017C01F3428F08BE00E94B3
:103E1000A71F10E010C0892F8156A12FB0E0E12F1D
:103E2000EF5F8A3120F4AE5FBB4F905202C0AE5FAD
:103E3000BB4F9C931E2F0E94DE24982F8F3F09F0CA
:103E4000ACCF8091AE05882341F09FB7F894809164
:103E5000A10582608093A1059FBF0E94FD1D8091F6
:103E60009F05882341F31F910F9108958FEA94E0F5
:103E70000E94981D089583EF95E00E94981D089573
:103E80001F93182F8DE596E00E94981D133091F036
:103E9000143028F4113041F01230B1F408C014305D
:103EA00061F0153089F40CC08BE496E00BC087E319
:103EB00096E008C085E296E005C08DE196E002C07C
:103EC00084E196E00E94981D80E196E00E94981D92
:103ED0001F910895FF920F931F93CF93DF938AE072
:103EE00092E00E94981D01EB15E0CFE7D6E0FF2499
:103EF000F80160817181828193810E94D13528818E
:103F000039814A815B810E9436350E941E1DF2E094
:103F1000FF1621F088E092E00E94981DF3940C5F58
:103F20001F4F249683E0F81619F786E092E00E946E
:103F3000981D8091BD050E94341D82E092E00E9490
:103F4000981DDF91CF911F910F91FF9008951F93BE
:103F5000182F882319F48FEA97E05CC087EA97E06E
:103F60000E94981D1730A9F1183078F4133029F108
:103F7000143030F41130C9F0123009F042C018C0CA
:103F8000153009F1163010F51BC01B3071F11C30D3
:103F900028F4193021F11A3028F51EC0153141F1ED
:103FA000163161F1143169F526C08FE897E002C03F
:103FB0008DE797E00E94981D2BC08BE697E0FACF23
:103FC00081E697E0F7CF80E597E0F4CF81E497E0D2
:103FD000F1CF80E297E0EECF87E197E0EBCF8CE086
:103FE00097E0E8CF89EF96E0E5CF8BEE96E0E2CF61
:103FF00085ED96E0DFCF81EC96E0DCCF8DEA96E0B0
:10400000D9CF8BE996E00E94981D812F0E94341D24
:1040100088E996E00E94981D1F910895DF92EF9223
:10402000FF920F931F93DF93CF93CDB7DEB76897BF
:104030000FB6F894DEBF0FBECDBFDE011196E2EAE7
:10404000F5E08CE001900D928150E1F78091A005A0
:104050008430E1F0853038F48130D9F0813050F08F
:104060008230F1F419C0803159F0803261F088302B
:10407000B9F403C082E391E011C08BE291E00EC07D
:1040800086E291E00BC080E291E008C08AE191E015
:1040900005C083E191E002C08CE091E00E94981D90
:1040A0008091B306082F10E0C80183709070892BAF
:1040B000E1F169817A818B819C810E94D1352091C7
:1040C0007F063091800640918106509182060E94C1
:1040D00036356D877E878F87988B6D817E818F8146
:1040E00098850E94D13520918306309184064091B5
:1040F0008506509186060E943635698B7A8B8B8BAC
:104100009C8B69857A858B859C850E94D135209111
:104110008706309188064091890650918A060E9450
:1041200036356D8B7E8B8F8B988F00FF1EC085E0A0
:1041300091E00E94981D6D857E858F8598890E94EB
:104140001E1D83E091E00E94981D69897A898B8900
:104150009C890E941E1D83E091E00E94981D6D893C
:104160007E898F89988D0E941E1D8091B30681FFE4
:1041700050C08CEF90E00E94981D8E01035F1F4F8E
:104180008AE4E82E85E0F82EDD24F7016081718154
:104190008281938124853585468557850E945634D2
:1041A0009B01AC01F80160817181828193810E9441
:1041B0005534F8016083718382839383F2E0DF16C4
:1041C00079F4209162053091630540916405509126
:1041D00065050E945534F80160837183828393835F
:1041E000F80160817181828193810E941E1DF2E03D
:1041F000DF1621F08AEF90E00E94981DD3940C5FA7
:104200001F4F84E090E0E80EF91E93E0D91609F004
:10421000BCCF8091B30682FF08C084EF90E00E947B
:10422000981D0E94F7170E94341D8091B30683FFEA
:1042300008C08FEE90E00E94981D0E9475240E9495
:10424000341D8BEE90E00E94981D68960FB6F8948E
:10425000DEBF0FBECDBFCF91DF911F910F91FF90B9
:10426000EF90DF9008950F931F938C018CE391E002
:104270000E94981DC8010E94A61D88E391E00E943B
:10428000981D1F910F910895FF920F931F93F82E81
:104290008B0181E591E00E94981D8F2D0E94341DB5
:1042A0008FE491E00E94981DC8010E94A61D8CE435
:1042B00091E00E94981D1F910F91FF90089589ED44
:1042C00091E00E94981D80912705843001F185308E
:1042D00048F4813099F0813070F0823091F0833071
:1042E00031F512C08630C9F08630A0F08730C1F0B9
:1042F0008830E9F418C086ED91E017C083ED91E0B5
:1043000014C080ED91E011C08DEC91E00EC087ECFF
:1043100091E00BC081EC91E008C08BEB91E005C00F
:1043200085EB91E002C081EB91E00E94981D8EEA3E
:1043300091E00E94981D80912D058A5C0E94341D99
:1043400080912B05813041F0813018F0823059F492
:1043500006C089EA91E005C084EA91E002C08FE9D5
:1043600091E00E94981D80912905882319F48AE91B
:1043700091E002C085E991E00E94981D80912A0594
:10438000882319F480E991E002C08BE891E00E9453
:10439000981D80912805813019F486E891E002C0CB
:1043A00081E891E00E94981D80912E05813041F0B6
:1043B000813018F0823059F406C08DE791E005C0D5
:1043C00089E791E002C085E791E00E94981D809105
:1043D0003005813029F0813048F0823059F403C033
:1043E00081E791E005C08DE691E002C089E691E0A9
:1043F0000E94981D80912F05882319F0823041F486
:1044000003C085E691E002C081E691E00E94981D1C
:104410008EE591E00E94981D809139050E94341D1F
:104420008BE591E00E94981D6091350570913605ED
:1044300080913705909138050E94081D88E591E02C
:104440000E94981D6091310570913205809133056D
:10445000909134050E94081D84E591E00E94981D0A
:104460000895CF92DF92EF92FF920F931F93DF9305
:10447000CF93CDB7DEB72C970FB6F894DEBF0FBE43
:10448000CDBFEE246E010894C11CD11C8E2DB60147
:104490000E94A127882321F487E00E94A71F6BC0F8
:1044A0008FEF91E00E94981D86E0E81621F0E7E08A
:1044B000EE1649F403C08CEF91E002C089EF91E061
:1044C0000E94981D04C08E2D8A5C0E94341D87EFC7
:1044D00091E00E94981D8601FF24F801608171819E
:1044E000828193810E941E1DF2E0FF1619F085EF74
:1044F00091E002C081EF91E00E94981DF3940C5F5F
:104500001F4F83E0F81649F7E394E8E0EE1609F050
:10451000BDCF8BEE91E00E94981D06E515E0FF24CB
:10452000F80160817181828193810E941E1DF2E0F9
:10453000FF1619F089EE91E002C085EE91E00E942D
:10454000981DF3940C5F1F4F83E0F81649F78FED29
:1045500091E00E94981D60916205709163058091C1
:104560006405909165050E941E1D8BED91E00E94EF
:10457000981D0E946A1F2C960FB6F894DEBF0FBEDE
:10458000CDBFCF91DF911F910F91FF90EF90DF9002
:10459000CF900895FF920F931F93CF93DF938BEAF1
:1045A00094E00E94981D8091AF060E94341D82E91C
:1045B00094E00E94981D8091B2060E94341D84E709
:1045C00094E00E94981D8091B0060E94341D8BE5F6
:1045D00094E00E94981D8091B0060E94671D84E5BA
:1045E00094E00E94981D8091B1060E94341D8CE3D6
:1045F00094E00E94981D8091B1060E94671D85E39A
:1046000094E00E94981D8091BC0690E09695879555
:104610009695879581700E94341D84E194E00E94F4
:10462000981D8091BC0690E066E0969587956A9506
:10463000E1F781700E94341D84EF93E00E94981D81
:1046400090E08091BC0687FD91E0892F0E94341D87
:1046500084ED93E00E94981D8091B3060E94341D62
:104660008EEB93E00E94981D8091B3060E94671D17
:1046700086EB93E00E94981D6091B4067091B50698
:104680008091B6069091B7060E94041D86E993E0DA
:104690000E94981D6091B8067091B9068091BA0683
:1046A0009091BB060E94041D8BE793E00E94981D29
:1046B0008091BC0681700E94341D8EE593E00E94BB
:1046C000981D8091BC0690E09695879581700E9418
:1046D000341D84E493E00E94981D8091BC0690E014
:1046E00045E0969587954A95E1F781700E94341DC3
:1046F00089E293E00E94981D8091BC0690E033E02F
:10470000969587953A95E1F781700E94341D8EE069
:1047100093E00E94981D8091BC0690E024E096955D
:1047200087952A95E1F781700E94341D82EF92E00F
:104730000E94981D8091BD060E94341D88ED92E074
:104740000E94981D8091BD060E94671D80ED92E039
:104750000E94981D6091BE067091BF068091C006B0
:104760009091C1060E94041D83EB92E00E94981D67
:104770006091C2067091C3068091C4069091C506EF
:104780000E94041D86E992E00E94981D8091C60651
:104790000E94341D87E792E00E94981D6091C80630
:1047A0007091C9068091CA069091CB060E94041DA3
:1047B0008EE592E00E94981D10E094E6F92E6AC002
:1047C0008CE592E00E94981D802F8F0D0E94341D71
:1047D0008AE592E00E94981D113061F0113028F0B6
:1047E000123069F01330E9F415C0688179818A814B
:1047F0009B8115C06C857D858E859F8510C0688DD9
:10480000798D8A8D9B8D20E030E041E655E40E9451
:10481000363505C06CA17DA18EA19FA190580E9444
:10482000041D87E592E00E94981D013041F001309F
:1048300018F0023059F406C085E592E005C083E522
:1048400092E002C081E592E00E94981D113051F083
:10485000113028F0123049F0133071F409C087E4A8
:1048600092E008C085E392E005C084E292E002C0D5
:1048700084E192E00E94981D80E192E00E94981DE0
:104880000F5F2496033009F09BCF1F5F143031F087
:104890008AE0F80ECFE7D6E000E092CFDF91CF912B
:1048A0001F910F91FF9008951F93182F80E996E0B4
:1048B0000E94981D1E3F41F01F3F19F01D3F59F403
:1048C00006C080E896E005C08DE696E002C082E66C
:1048D00096E00E94981D8FE596E00E94981D84EF57
:1048E00091E00E9464171F91089590915304809164
:1048F0005204891710F0891B08958058891B089568
:10490000E0ECF0E08081826080831092C50080E15D
:104910008093C400E1ECF0E080818061808380813D
:10492000886080838081806880830895282FE0914B
:1049300054049E2F9F5F903431F490E004C0809126
:10494000A10584FD0FC0809155049817C1F3F0E0D4
:10495000E154FA4F2083909354048091C100806207
:104960008093C10008951F920F920FB60F921124E9
:104970008F939F93EF93FF9380915504E82FF0E07E
:10498000E154FA4F90819093C600982F9F5F903426
:1049900009F490E09093550480915404981729F4F9
:1049A0008091C1008F7D8093C100FF91EF919F9115
:1049B0008F910F900FBE0F901F90189590915304F8
:1049C00080915204891711F48FEF0895E92FF0E0D8
:1049D000E150FA4F8081E92FEF5FE03809F4E0E021
:1049E000E0935304089580915204809353040895F2
:1049F0001F920F920FB60F9211242F933F934F9354
:104A00005F936F937F938F939F93AF93BF93EF9336
:104A1000FF932091C6002132C9F0223218F42831C8
:104A2000F1F41AC02F3319F02E37C9F406C09FB71E
:104A3000F8948091A105816005C09FB7F89480919A
:104A4000A10582608093A1059FBF1AC09FB7F8940B
:104A50008091A1058860F6CF0E94331211C0E091C9
:104A600052049E2F9F5F903809F490E08091530488
:104A7000981731F0F0E0E150FA4F20839093520400
:104A8000FF91EF91BF91AF919F918F917F916F9126
:104A90005F914F913F912F910F900FBE0F901F90FC
:104AA0001895882311F484E00895813011F080E195
:104AB000089588E00895882311F480E208958130F4
:104AC00011F080E8089580E40895882311F482E0CD
:104AD0000895813011F080E1089584E0089580E028
:104AE00090E00E940F04893011F020E00CC08FE7A5
:104AF00096E061E070E04DE450E00E94820420E026
:104B0000892B09F021E0822F089580E093E060E096
:104B10000E94170481E593E060E00E941704089565
:104B200080E090E069E00E94170481E090E06FE788
:104B300076E04DE450E00E9439040895CF92DF9270
:104B4000EF92FF920F931F93082F6A017B01CB0115
:104B5000BA0120E030E040E050E00E942F35882389
:104B600014F484E018C1043608F459C0045690E0E7
:104B7000033008F04BC0913089F0913030F0923022
:104B8000D1F0933009F002C131C0E02FF0E0EE0F18
:104B9000FF1FEE0FFF1FE158F94F08C0E02FF0E0B4
:104BA000EE0FFF1FEE0FFF1FE557F94FC082D182B6
:104BB000E282F382EBC010E0000F111F000F111F03
:104BC0000956194FC701B60120E030E040E752E432
:104BD0000E94783720E030E040E752E40E947837C6
:104BE000F8016083718382839383D0C0E02FF0E06B
:104BF000EE0FFF1FEE0FFF1FED55F94FD701C60156
:104C0000B05880839183A283B383C0C00A3008F474
:104C1000C1C09F5F943009F4BDC00A50A9CFC7013D
:104C2000B6010E9452380E94A335E02FF0E0EC312B
:104C3000F10508F0AFC0EC5CFF4FEE0FFF1F0590D1
:104C4000F491E02D0994633010F486E0A4C06093E1
:104C5000AF069CC06093B20699C06093B00602C0D4
:104C60006093B1060E94A52F91C0662321F0809128
:104C7000BC06846009C08091BC068B7F05C066239A
:104C800031F08091BC0680648093BC067FC0809127
:104C9000BC068F7BF9CF662321F08091BC0680682B
:104CA000F3CF8091BC068F77EFCF6093B3066EC0D1
:104CB000C092B406D092B506E092B606F092B7065E
:104CC00065C0C092B806D092B906E092BA06F092DA
:104CD000BB065CC0662321F08091BC068160D4CF06
:104CE0008091BC068E7FD0CF662321F08091BC06D8
:104CF0008260CACF8091BC068D7FC6CF662341F00B
:104D00008091BC0684FD02C08AE045C08062BCCFB1
:104D10008091BC068F7DB8CF662321F08091BC06C0
:104D2000886003C08091BC06877F8093BC060E9488
:104D30001E0F2CC0662321F08091BC068061A4CF99
:104D40008091BC068F7CA0CF6093BD061FC0C0922F
:104D5000BE06D092BF06E092C006F092C10616C011
:104D6000C092C206D092C306E092C406F092C50675
:104D70000DC06093C6061092C70608C0C092C80650
:104D8000D092C906E092CA06F092CB060E94902506
:104D900080E001C083E01F910F91FF90EF90DF90C2
:104DA000CF9008958AE08093AF0689E18093B206A0
:104DB0001092B00686E08093B10683E08093B3063C
:104DC0008AE097EDA3EABCE38093B4069093B5061E
:104DD000A093B606B093B7068FE692E1A3E0BBE3DB
:104DE0008093B8069093B906A093BA06B093BB0619
:104DF0001092BD0680E090E0A8ECB1E48093BE067E
:104E00009093BF06A093C006B093C10620E030E0A7
:104E10004AEF53E42093C2063093C3064093C4067E
:104E20005093C5068AEF90E09093C7068093C6061C
:104E300080E090E0A0E8BFE38093C8069093C906A5
:104E4000A093CA06B093CB0682E08093BC0680E0B4
:104E500090E0AAE7B3E480937F0690938006A09346
:104E60008106B09382068093830690938406A09374
:104E70008506B09386068093870690938806A09354
:104E80008906B0938A0620938B0630938C06409354
:104E90008D0650938E0620938F0630939006409394
:104EA0009106509392062093930630939406409374
:104EB00095065093960680E090EAACE0B7E48093C4
:104EC000970690939806A0939906B0939A068093BC
:104ED0009B0690939C06A0939D06B0939E0680939C
:104EE0009F069093A006A093A106B093A20680E02F
:104EF00090E0A8E4B3EC8093A3069093A406A0935B
:104F0000A506B093A6068093A7069093A806A09343
:104F1000A906B093AA068093AB069093AC06A09323
:104F2000AD06B093AE060E94902508959DE0899F3E
:104F3000C001112480509E4F4CE050E00E94390483
:104F400008950F931F93CF93DF93162F072F9DE0A4
:104F5000899FE0011124C050DE4F862F972FBE019C
:104F60004CE050E00E948204892B11F081E00FC0D8
:104F7000E12FF02F8CE0DF011D928A95E9F7CE0139
:104F8000612F702F4CE050E00E94390480E0DF91E7
:104F9000CF911F910F910895EF92FF921F93DF938E
:104FA000CF93CDB7DEB72C970FB6F894DEBF0FBE08
:104FB000CDBF0E946F25882371F487E00E94A71F50
:104FC0000E94D2260E9485258EEA93E060E00E942E
:104FD00017040E94CA2210E07E010894E11CF11C13
:104FE000812FB7010E94A127882319F487E00E942E
:104FF000A71F1F5F1830A1F72C960FB6F894DEBFDD
:105000000FBECDBFCF91DF911F91FF90EF9008951C
:10501000BC018EEA93E040E550E00E943904089517
:10502000CF93DF93EC016EEA73E040E550E00E941D
:105030008204892B11F081E009C018828EEA93E086
:10504000BE0140E550E00E94390480E0DF91CF913D
:10505000089591E5899FC001112480509D4F40E53E
:1050600050E00E94390408950F931F93CF93DF936C
:105070008B0191E5899FE0011124C050DD4FCB01E8
:10508000BE0140E550E00E948204892B11F081E0CE
:1050900009C0F8011082CE01B80140E550E00E943D
:1050A000390480E0DF91CF911F910F910895239AE9
:1050B000239A259AE0EBF0E080818F7780832B980C
:1050C0000895E0EBF0E080818F7780832B9808953E
:1050D000DF92EF92FF920F931F93D82E7A018B01EC
:1050E0008091A005823009F45AC00E94F01D0E94F0
:1050F000971EDD2039F48091B0008F778093B00047
:105100002B984DC081E0D81611F42D9801C02D9A2E
:1051100083E88093B0008091B100887F82608093A3
:10512000B100C801B70120E030E040E050E00E944B
:105130002F3588235CF40F2EF0E0EF2EF0E0FF2EE9
:10514000F0E00F2FF0E01F2FF02D14C0C801B701C1
:1051500020E030E44CE156E40E943D37181654F448
:105160000F2EF0E0EF2EF0E4FF2EFCE10F2FF6E41F
:105170001F2FF02DC801B70120E635EE40ED5CE3AE
:105180000E94783720E030E040E05FE30E94563430
:105190000E940C360E94A3356093B3002B9A1F9196
:1051A0000F91FF90EF90DF9008958091BC0682FFF1
:1051B00002C0289A01C028988091A0058471E1F06E
:1051C0008091F6048093DE048091F5048093DD04E1
:1051D0008091AF0690E0A0E0B0E00297A109B1098C
:1051E000880F991FAA1FBB1F81958093DC048091B3
:1051F0006F00826080936F0008951F920F920FB628
:105200000F9211248F939F939BB18091F5048C7121
:10521000937E892B8BB915BC9F918F910F900FBEF8
:105220000F901F9018958AB18C618AB9209A8AB123
:10523000806E8AB9E1E8F0E080818F7E8083808192
:1052400088608083E0E8F0E080818C7F80838081CB
:105250008F708083EEE6F0E08081887F808314BCCD
:1052600015BC8081816080830895CF93DF93C091C6
:10527000F804D091F9042097B9F081E08093FD04FF
:105280002091130530911405409115055091160594
:10529000CA01B9010E947837698B7A8B8B8B9C8B02
:1052A0001092F9041092F804DF91CF9108952F9293
:1052B0003F924F925F926F927F928F929F92AF92A6
:1052C000BF92CF92DF92EF92FF920F931F93DF93E3
:1052D000CF93CDB7DEB7E9970FB6F894DEBF0FBE18
:1052E000CDBF13C68091F8049091F904892B09F081
:1052F0007EC20E94AB179093F9048093F804892B27
:1053000009F40AC68091FD04882319F01092FD0467
:10531000CAC08091FC048F5F8093FC04853011F437
:105320001092FC04E091FC0421E1E29FF0011124C1
:10533000EA5AFB4FF093FB04E093FA040091F8045F
:105340001091F904D8018C91808311962D913D9193
:105350004D915C91149793E0220F331F441F551F0A
:105360009A95D1F7218332834383548315962D91E7
:105370003D914D915C91189783E0220F331F441F9C
:10538000551F8A95D1F72583368347835087199611
:105390002D913D914D915C911C9773E0220F331F2D
:1053A000441F551F7A95D1F7218732874387548749
:1053B0001D962D913D914D915C91509763E0220F88
:1053C000331F441F551F6A95D1F7258736874787B6
:1053D000508B1D966D917D918D919C9150970E945F
:1053E000CF356093FE047093FF0480930005909383
:1053F0000105F80125A136A147A150A50E94363527
:105400009B01AC0160930205709303058093040532
:105410009093050560E070E080EA9FE30E943635D6
:10542000609306057093070580930805909309051E
:1054300080E090E0A0E0B0E080930A0590930B0537
:10544000A0930C05B0930D058091A0058032E1F486
:1054500020911B0530911C0540911D0550911E05A2
:1054600020931305309314054093150550931605AA
:10547000CA01B9010E947837D80151966D937D9386
:105480008D939C9354970FC0F80161897289838929
:1054900094890E94053860931305709314058093D6
:1054A00015059093160580E090E0A0E0B0E08093B1
:1054B0000F0590931005A0931105B093120500916C
:1054C000F8041091F904D80191968D919D910D9059
:1054D000BC91A02D88AB99ABAAABBBAB60E070E0F0
:1054E00080E09FE328A939A94AA95BA90E94363523
:1054F0001B012C018091A005803209F056C0B2E05A
:10550000B0930E05F801A5A0B6A0C7A0D0A46188ED
:10551000728883889488C201B101A40193010E941A
:1055200078379B01AC01C601B5010E9455347B015F
:105530008C0120E030E040E050E00E942F358823CD
:10554000FCF468A979A98AA99BA920E030E040E091
:1055500050EC0E947837A60195010E9478379B0194
:10556000AC01C401B3010E9456340E940538609317
:105570001B0570931C0580931D0590931E0537C174
:10558000E0920F05F092100500931105109312059B
:1055900080E090E0A0E0B0E080931B0590931C05B4
:1055A000A0931D05B0931E0522C110920E05F801AF
:1055B00085A196A1A7A1B0A580931F059093200572
:1055C000A0932105B09322050E942A195B016C016A
:1055D00060931B0570931C0580931D0590931E0519
:1055E000A60195010E9478373B014C012091F804F7
:1055F0003091F90439AF28AFD90195968D919D91DD
:105600000D90BC91A02D8B8F9C8FAD8FBE8FF9011B
:105610006189728983899489A40193010E94553418
:105620009B01AC01C201B1010E9478379B01AC0122
:105630006B8D7C8D8D8D9E8D0E94563420E030E0E8
:1056400040E05FE30E9478377B018C0120E030E08E
:1056500040E050E00E943D3718160CF0B4C0C8017D
:10566000B7012B8D3C8D4D8D5E8D0E942F3588238B
:105670000CF095C0A8ADB9AD5D966D917D918D9101
:105680009C919097A40193010E9455349B01AC0119
:10569000C201B1010E9478376093230570932405FD
:1056A0008093250590932605A80197010E942F3528
:1056B00088230CF047C0E8ADF9ADE58CF68C078D7A
:1056C00010A1C801B7010E940538609317057093B7
:1056D00018058093190590931A05A8ADB9AD519698
:1056E000AD90BD90CD90DC905497C601B501A80156
:1056F00097010E942F35882321F4B1E0B0930E0565
:1057000076C0C801B701A60195010E9455349B01DE
:10571000AC01C201B1010E9478379B01AC016091DC
:105720001F057091200580912105909122050E940E
:10573000553460931F057093200580932105909345
:10574000220555C0E0921F05F09220050093210527
:1057500010932205E0922305F0922405009325057D
:1057600010932605E8ADF9AD21A132A143A154A1C2
:10577000CA01B9010E945634A80197010E947837E6
:10578000A40193010E9456340E94053860931705C6
:10579000709318058093190590931A0528C0F2E0BC
:1057A000F0930E058091130590911405A0911505B5
:1057B000B09116058093170590931805A0931905CD
:1057C000B0931A0514C080E090E0A0E0B0E08093B0
:1057D0001F0590932005A0932105B0932205A09268
:1057E0001705B0921805C0921905D0921A0580913C
:1057F000F304B6E08B9FD0011124A555BB4FB9AF80
:10580000A8AF8091FC0412968C93E091F804F0917B
:10581000F904FA8FE98F85A196A1A7A1B0A58D8B78
:105820009E8BAF8BB88FBC01CD01209106053091C6
:10583000070540910805509109050E9455346CA355
:105840007DA38EA39FA320E030E040E050E00E94C3
:105850002F35882344F480E090E0A0E0B0E08CA3F2
:105860009DA3AEA3BFA380911F0590912005A09199
:105870002105B0912205898B9A8BAB8BBC8B8091D3
:10588000170590911805A0911905B0911A058D87FB
:105890009E87AF87B88B8091230590912405A091B6
:1058A0002505B091260589879A87AB87BC878091AB
:1058B0000F0590911005A0911105B09112058D83EF
:1058C0009E83AF83B88780911B0590911C05A091A2
:1058D0001D05B0911E0589839A83AB83BC8380919B
:1058E000130590911405A0911505B091160588A394
:1058F00099A3AAA3BBA390910E059F8FAD88BE88E4
:10590000CF88D88C8EE393ECAEE2B9E38CA79DA749
:10591000AEA7BFA780E090E0A0E0B0E088A799A77D
:10592000AAA7BBA70F2EFEE36F2EF3EC7F2EFEE29D
:105930008F2EF9E39F2EF02D9F8D992321F091302A
:1059400009F0B3C080C0C401B301A98DBA8D91968E
:105950002D913D914D915C9194970E9478377B01F8
:105960008C0120E030E040E05FE30E9478379B014B
:10597000AC0168A179A18AA19BA10E9456349B0128
:10598000AC01C401B3010E9478379B01AC01C60190
:10599000B5010E9455345B016C0129893A894B8914
:1059A0005C890E942F3588230CF040C069897A8970
:1059B0008B899C8929853A854B855C850E942F358A
:1059C000882319F4B2E0BF8F02C0E1E0EF8F6D8948
:1059D0007E898F89988D29893A894B895C890E94B3
:1059E00055349B01AC010E9456347B018C0168A1A7
:1059F00079A18AA19BA12D853E854F8558890E945A
:105A000056349B01AC01C801B7010E9436353B01F9
:105A10004C01A988BA88CB88DC888D859E85AF85A6
:105A2000B88988A399A3AAA3BBA3B0C068A179A190
:105A30008AA19BA1A80197010E94563468A379A36B
:105A40008AA39BA3A3C06D857E858F859889A401B9
:105A500093010E9478379B01AC01C601B5010E94F9
:105A600055347B018C0129853A854B855C850E94E4
:105A70002F3587FD03C05701680188C0C601B501F5
:105A800029853A854B855C850E9455342D853E8558
:105A90004F8558890E9436353B014C01A984BA8450
:105AA000CB84DC8492E09F8F71C0C401B301A98DC7
:105AB000BA8D91962D913D914D915C9194970E9454
:105AC00078377B018C0168A179A18AA19BA1A801EB
:105AD00097010E943D371816ACF5C801B70120E0C8
